{
  "contractName": "MasterChef",
  "abi": [
    {
      "inputs": [
        {
          "internalType": "contract AliToken",
          "name": "_ali",
          "type": "address"
        },
        {
          "internalType": "contract Staking",
          "name": "_staking",
          "type": "address"
        },
        {
          "internalType": "uint256",
          "name": "_startBlock",
          "type": "uint256"
        }
      ],
      "stateMutability": "nonpayable",
      "type": "constructor"
    },
    {
      "anonymous": false,
      "inputs": [
        {
          "indexed": true,
          "internalType": "address",
          "name": "user",
          "type": "address"
        },
        {
          "indexed": true,
          "internalType": "uint256",
          "name": "pid",
          "type": "uint256"
        },
        {
          "indexed": false,
          "internalType": "uint256",
          "name": "amount",
          "type": "uint256"
        }
      ],
      "name": "Deposit",
      "type": "event"
    },
    {
      "anonymous": false,
      "inputs": [
        {
          "indexed": true,
          "internalType": "address",
          "name": "user",
          "type": "address"
        },
        {
          "indexed": true,
          "internalType": "uint256",
          "name": "pid",
          "type": "uint256"
        },
        {
          "indexed": false,
          "internalType": "uint256",
          "name": "amount",
          "type": "uint256"
        }
      ],
      "name": "EmergencyWithdraw",
      "type": "event"
    },
    {
      "anonymous": false,
      "inputs": [
        {
          "indexed": true,
          "internalType": "address",
          "name": "previousOwner",
          "type": "address"
        },
        {
          "indexed": true,
          "internalType": "address",
          "name": "newOwner",
          "type": "address"
        }
      ],
      "name": "OwnershipTransferred",
      "type": "event"
    },
    {
      "anonymous": false,
      "inputs": [
        {
          "indexed": true,
          "internalType": "address",
          "name": "user",
          "type": "address"
        },
        {
          "indexed": true,
          "internalType": "uint256",
          "name": "pid",
          "type": "uint256"
        },
        {
          "indexed": false,
          "internalType": "uint256",
          "name": "amount",
          "type": "uint256"
        }
      ],
      "name": "Withdraw",
      "type": "event"
    },
    {
      "inputs": [],
      "name": "ali",
      "outputs": [
        {
          "internalType": "contract AliToken",
          "name": "",
          "type": "address"
        }
      ],
      "stateMutability": "view",
      "type": "function"
    },
    {
      "inputs": [],
      "name": "migrator",
      "outputs": [
        {
          "internalType": "contract IMigratorChef",
          "name": "",
          "type": "address"
        }
      ],
      "stateMutability": "view",
      "type": "function"
    },
    {
      "inputs": [],
      "name": "owner",
      "outputs": [
        {
          "internalType": "address",
          "name": "",
          "type": "address"
        }
      ],
      "stateMutability": "view",
      "type": "function"
    },
    {
      "inputs": [
        {
          "internalType": "uint256",
          "name": "",
          "type": "uint256"
        }
      ],
      "name": "poolInfo",
      "outputs": [
        {
          "internalType": "contract IBEP20",
          "name": "lpToken",
          "type": "address"
        },
        {
          "internalType": "uint256",
          "name": "allocPoint",
          "type": "uint256"
        },
        {
          "internalType": "uint256",
          "name": "lastRewardBlock",
          "type": "uint256"
        },
        {
          "internalType": "uint256",
          "name": "accALIPerShare",
          "type": "uint256"
        }
      ],
      "stateMutability": "view",
      "type": "function"
    },
    {
      "inputs": [],
      "name": "renounceOwnership",
      "outputs": [],
      "stateMutability": "nonpayable",
      "type": "function"
    },
    {
      "inputs": [],
      "name": "staking",
      "outputs": [
        {
          "internalType": "contract Staking",
          "name": "",
          "type": "address"
        }
      ],
      "stateMutability": "view",
      "type": "function"
    },
    {
      "inputs": [],
      "name": "startBlock",
      "outputs": [
        {
          "internalType": "uint256",
          "name": "",
          "type": "uint256"
        }
      ],
      "stateMutability": "view",
      "type": "function"
    },
    {
      "inputs": [],
      "name": "totalAllocPoint",
      "outputs": [
        {
          "internalType": "uint256",
          "name": "",
          "type": "uint256"
        }
      ],
      "stateMutability": "view",
      "type": "function"
    },
    {
      "inputs": [
        {
          "internalType": "address",
          "name": "newOwner",
          "type": "address"
        }
      ],
      "name": "transferOwnership",
      "outputs": [],
      "stateMutability": "nonpayable",
      "type": "function"
    },
    {
      "inputs": [
        {
          "internalType": "uint256",
          "name": "",
          "type": "uint256"
        },
        {
          "internalType": "address",
          "name": "",
          "type": "address"
        }
      ],
      "name": "userInfo",
      "outputs": [
        {
          "internalType": "uint256",
          "name": "amount",
          "type": "uint256"
        },
        {
          "internalType": "uint256",
          "name": "rewardDebt",
          "type": "uint256"
        }
      ],
      "stateMutability": "view",
      "type": "function"
    },
    {
      "inputs": [],
      "name": "poolLength",
      "outputs": [
        {
          "internalType": "uint256",
          "name": "",
          "type": "uint256"
        }
      ],
      "stateMutability": "view",
      "type": "function"
    },
    {
      "inputs": [
        {
          "internalType": "uint256",
          "name": "_allocPoint",
          "type": "uint256"
        },
        {
          "internalType": "contract IBEP20",
          "name": "_lpToken",
          "type": "address"
        },
        {
          "internalType": "bool",
          "name": "_withUpdate",
          "type": "bool"
        }
      ],
      "name": "add",
      "outputs": [],
      "stateMutability": "nonpayable",
      "type": "function"
    },
    {
      "inputs": [
        {
          "internalType": "uint256",
          "name": "_pid",
          "type": "uint256"
        },
        {
          "internalType": "uint256",
          "name": "_allocPoint",
          "type": "uint256"
        },
        {
          "internalType": "bool",
          "name": "_withUpdate",
          "type": "bool"
        }
      ],
      "name": "set",
      "outputs": [],
      "stateMutability": "nonpayable",
      "type": "function"
    },
    {
      "inputs": [
        {
          "internalType": "contract IMigratorChef",
          "name": "_migrator",
          "type": "address"
        }
      ],
      "name": "setMigrator",
      "outputs": [],
      "stateMutability": "nonpayable",
      "type": "function"
    },
    {
      "inputs": [
        {
          "internalType": "uint256",
          "name": "_pid",
          "type": "uint256"
        }
      ],
      "name": "migrate",
      "outputs": [],
      "stateMutability": "nonpayable",
      "type": "function"
    },
    {
      "inputs": [
        {
          "internalType": "uint256",
          "name": "_pid",
          "type": "uint256"
        },
        {
          "internalType": "address",
          "name": "_user",
          "type": "address"
        }
      ],
      "name": "pendingALI",
      "outputs": [
        {
          "internalType": "uint256",
          "name": "",
          "type": "uint256"
        }
      ],
      "stateMutability": "view",
      "type": "function"
    },
    {
      "inputs": [],
      "name": "massUpdatePools",
      "outputs": [],
      "stateMutability": "nonpayable",
      "type": "function"
    },
    {
      "inputs": [
        {
          "internalType": "uint256",
          "name": "_pid",
          "type": "uint256"
        }
      ],
      "name": "updatePool",
      "outputs": [],
      "stateMutability": "nonpayable",
      "type": "function"
    },
    {
      "inputs": [
        {
          "internalType": "uint256",
          "name": "_pid",
          "type": "uint256"
        },
        {
          "internalType": "uint256",
          "name": "_amount",
          "type": "uint256"
        }
      ],
      "name": "deposit",
      "outputs": [],
      "stateMutability": "nonpayable",
      "type": "function"
    },
    {
      "inputs": [
        {
          "internalType": "uint256",
          "name": "_pid",
          "type": "uint256"
        },
        {
          "internalType": "uint256",
          "name": "_amount",
          "type": "uint256"
        }
      ],
      "name": "withdraw",
      "outputs": [],
      "stateMutability": "nonpayable",
      "type": "function"
    },
    {
      "inputs": [
        {
          "internalType": "uint256",
          "name": "_amount",
          "type": "uint256"
        }
      ],
      "name": "enterStaking",
      "outputs": [],
      "stateMutability": "nonpayable",
      "type": "function"
    },
    {
      "inputs": [
        {
          "internalType": "uint256",
          "name": "_amount",
          "type": "uint256"
        }
      ],
      "name": "leaveStaking",
      "outputs": [],
      "stateMutability": "nonpayable",
      "type": "function"
    },
    {
      "inputs": [
        {
          "internalType": "uint256",
          "name": "_pid",
          "type": "uint256"
        }
      ],
      "name": "emergencyWithdraw",
      "outputs": [],
      "stateMutability": "nonpayable",
      "type": "function"
    },
    {
      "inputs": [
        {
          "internalType": "uint256",
          "name": "periodIndex",
          "type": "uint256"
        }
      ],
      "name": "getRewardPerBlock",
      "outputs": [
        {
          "internalType": "uint256",
          "name": "",
          "type": "uint256"
        }
      ],
      "stateMutability": "view",
      "type": "function"
    },
    {
      "inputs": [
        {
          "internalType": "uint256",
          "name": "periodIndex",
          "type": "uint256"
        }
      ],
      "name": "getBlockNumberOfMilestone",
      "outputs": [
        {
          "internalType": "uint256",
          "name": "",
          "type": "uint256"
        }
      ],
      "stateMutability": "view",
      "type": "function"
    },
    {
      "inputs": [
        {
          "internalType": "uint256",
          "name": "blockNumber",
          "type": "uint256"
        }
      ],
      "name": "getPeriodIndexByBlockNumber",
      "outputs": [
        {
          "internalType": "uint256",
          "name": "",
          "type": "uint256"
        }
      ],
      "stateMutability": "view",
      "type": "function"
    },
    {
      "inputs": [
        {
          "internalType": "uint256",
          "name": "lastRewardBlock",
          "type": "uint256"
        }
      ],
      "name": "getClaimableReward",
      "outputs": [
        {
          "internalType": "uint256",
          "name": "",
          "type": "uint256"
        }
      ],
      "stateMutability": "view",
      "type": "function"
    }
  ],
  "bytecode": "0x608060405260006006553480156200001657600080fd5b5060405162003b0a38038062003b0a833981810160405260608110156200003c57600080fd5b810190808051906020019092919080519060200190929190805190602001909291905050506000620000736200027a60201b60201c565b9050806000806101000a81548173ffffffffffffffffffffffffffffffffffffffff021916908373ffffffffffffffffffffffffffffffffffffffff1602179055508073ffffffffffffffffffffffffffffffffffffffff16600073ffffffffffffffffffffffffffffffffffffffff167f8be0079c531659141344cd1fd0a4f28419497f9722a3daafe3b4186f6b6457e060405160405180910390a35082600160006101000a81548173ffffffffffffffffffffffffffffffffffffffff021916908373ffffffffffffffffffffffffffffffffffffffff16021790555081600260006101000a81548173ffffffffffffffffffffffffffffffffffffffff021916908373ffffffffffffffffffffffffffffffffffffffff16021790555080600781905550600460405180608001604052808573ffffffffffffffffffffffffffffffffffffffff1681526020016103e8815260200160075481526020016000815250908060018154018082558091505060019003906000526020600020906004020160009091909190915060008201518160000160006101000a81548173ffffffffffffffffffffffffffffffffffffffff021916908373ffffffffffffffffffffffffffffffffffffffff16021790555060208201518160010155604082015181600201556060820151816003015550506103e860068190555050505062000282565b600033905090565b61387880620002926000396000f3fe608060405234801561001057600080fd5b50600436106101a95760003560e01c8063630b5ba1116100f95780638da5cb5b11610097578063a5e2af5b11610071578063a5e2af5b146106b6578063da4d3068146106f8578063e2bbb1581461072c578063f2fde38b14610764576101a9565b80638da5cb5b146105b7578063906eafcd146105eb57806393f1a40b1461064d576101a9565b806379e29bac116100d357806379e29bac146104bd5780637b550bc9146104ff5780637cd07e47146105415780638c25be3d14610575576101a9565b8063630b5ba11461046557806364482f791461046f578063715018a6146104b3576101a9565b806341441d3b1161016657806348cd4cb11161014057806348cd4cb1146103b75780634cf088d9146103d557806351eb05a6146104095780635312ea8e14610437576101a9565b806341441d3b14610323578063441a3e7014610351578063454b060814610389576101a9565b8063081e3eda146101ae5780631058d281146101cc5780631526fe27146101fa57806317caf6f1146102675780631eaaa0451461028557806323cf3118146102df575b600080fd5b6101b66107a8565b6040518082815260200191505060405180910390f35b6101f8600480360360208110156101e257600080fd5b81019080803590602001909291905050506107b5565b005b6102266004803603602081101561021057600080fd5b8101908080359060200190929190505050610a15565b604051808573ffffffffffffffffffffffffffffffffffffffff16815260200184815260200183815260200182815260200194505050505060405180910390f35b61026f610a72565b6040518082815260200191505060405180910390f35b6102dd6004803603606081101561029b57600080fd5b8101908080359060200190929190803573ffffffffffffffffffffffffffffffffffffffff169060200190929190803515159060200190929190505050610a78565b005b610321600480360360208110156102f557600080fd5b81019080803573ffffffffffffffffffffffffffffffffffffffff169060200190929190505050610c3e565b005b61034f6004803603602081101561033957600080fd5b8101908080359060200190929190505050610d4a565b005b6103876004803603604081101561036757600080fd5b810190808035906020019092919080359060200190929190505050610f40565b005b6103b56004803603602081101561039f57600080fd5b8101908080359060200190929190505050611215565b005b6103bf61163f565b6040518082815260200191505060405180910390f35b6103dd611645565b604051808273ffffffffffffffffffffffffffffffffffffffff16815260200191505060405180910390f35b6104356004803603602081101561041f57600080fd5b810190808035906020019092919050505061166b565b005b6104636004803603602081101561044d57600080fd5b81019080803590602001909291905050506118de565b005b61046d611a10565b005b6104b16004803603606081101561048557600080fd5b810190808035906020019092919080359060200190929190803515159060200190929190505050611a3d565b005b6104bb611b70565b005b6104e9600480360360208110156104d357600080fd5b8101908080359060200190929190505050611cf6565b6040518082815260200191505060405180910390f35b61052b6004803603602081101561051557600080fd5b8101908080359060200190929190505050611ee0565b6040518082815260200191505060405180910390f35b61054961217d565b604051808273ffffffffffffffffffffffffffffffffffffffff16815260200191505060405180910390f35b6105a16004803603602081101561058b57600080fd5b81019080803590602001909291905050506121a3565b6040518082815260200191505060405180910390f35b6105bf61239c565b604051808273ffffffffffffffffffffffffffffffffffffffff16815260200191505060405180910390f35b6106376004803603604081101561060157600080fd5b8101908080359060200190929190803573ffffffffffffffffffffffffffffffffffffffff1690602001909291905050506123c5565b6040518082815260200191505060405180910390f35b6106996004803603604081101561066357600080fd5b8101908080359060200190929190803573ffffffffffffffffffffffffffffffffffffffff1690602001909291905050506125f0565b604051808381526020018281526020019250505060405180910390f35b6106e2600480360360208110156106cc57600080fd5b8101908080359060200190929190505050612621565b6040518082815260200191505060405180910390f35b61070061276b565b604051808273ffffffffffffffffffffffffffffffffffffffff16815260200191505060405180910390f35b6107626004803603604081101561074257600080fd5b810190808035906020019092919080359060200190929190505050612791565b005b6107a66004803603602081101561077a57600080fd5b81019080803573ffffffffffffffffffffffffffffffffffffffff1690602001909291905050506129fc565b005b6000600480549050905090565b600060046000815481106107c557fe5b9060005260206000209060040201905060006005600080815260200190815260200160002060003373ffffffffffffffffffffffffffffffffffffffff1673ffffffffffffffffffffffffffffffffffffffff168152602001908152602001600020905082816000015410156108a3576040517f08c379a00000000000000000000000000000000000000000000000000000000081526004018080602001828103825260128152602001807f77697468647261773a206e6f7420676f6f64000000000000000000000000000081525060200191505060405180910390fd5b6108ad600061166b565b60006108f782600101546108e964e8d4a510006108db87600301548760000154612ad090919063ffffffff16565b612b5690919063ffffffff16565b612ba090919063ffffffff16565b9050600081111561090d5761090c3382612bea565b5b60008411156109855761092d848360000154612ba090919063ffffffff16565b826000018190555061098433858560000160009054906101000a900473ffffffffffffffffffffffffffffffffffffffff1673ffffffffffffffffffffffffffffffffffffffff16612c999092919063ffffffff16565b5b6109b764e8d4a510006109a985600301548560000154612ad090919063ffffffff16565b612b5690919063ffffffff16565b826001018190555060003373ffffffffffffffffffffffffffffffffffffffff167ff279e6a1f5e320cca91135676d9cb6e44ca8a08c0b88342bcdb1144f6511b568866040518082815260200191505060405180910390a350505050565b60048181548110610a2257fe5b90600052602060002090600402016000915090508060000160009054906101000a900473ffffffffffffffffffffffffffffffffffffffff16908060010154908060020154908060030154905084565b60065481565b610a80612d3b565b73ffffffffffffffffffffffffffffffffffffffff1660008054906101000a900473ffffffffffffffffffffffffffffffffffffffff1673ffffffffffffffffffffffffffffffffffffffff1614610b40576040517f08c379a00000000000000000000000000000000000000000000000000000000081526004018080602001828103825260208152602001807f4f776e61626c653a2063616c6c6572206973206e6f7420746865206f776e657281525060200191505060405180910390fd5b8015610b4f57610b4e611a10565b5b60006007544311610b6257600754610b64565b435b9050600460405180608001604052808573ffffffffffffffffffffffffffffffffffffffff1681526020018681526020018381526020016000815250908060018154018082558091505060019003906000526020600020906004020160009091909190915060008201518160000160006101000a81548173ffffffffffffffffffffffffffffffffffffffff021916908373ffffffffffffffffffffffffffffffffffffffff1602179055506020820151816001015560408201518160020155606082015181600301555050610c38612d43565b50505050565b610c46612d3b565b73ffffffffffffffffffffffffffffffffffffffff1660008054906101000a900473ffffffffffffffffffffffffffffffffffffffff1673ffffffffffffffffffffffffffffffffffffffff1614610d06576040517f08c379a00000000000000000000000000000000000000000000000000000000081526004018080602001828103825260208152602001807f4f776e61626c653a2063616c6c6572206973206e6f7420746865206f776e657281525060200191505060405180910390fd5b80600360006101000a81548173ffffffffffffffffffffffffffffffffffffffff021916908373ffffffffffffffffffffffffffffffffffffffff16021790555050565b60006004600081548110610d5a57fe5b9060005260206000209060040201905060006005600080815260200190815260200160002060003373ffffffffffffffffffffffffffffffffffffffff1673ffffffffffffffffffffffffffffffffffffffff1681526020019081526020016000209050610dc8600061166b565b600081600001541115610e37576000610e1f8260010154610e1164e8d4a51000610e0387600301548760000154612ad090919063ffffffff16565b612b5690919063ffffffff16565b612ba090919063ffffffff16565b90506000811115610e3557610e343382612bea565b5b505b6000831115610eb157610e913330858560000160009054906101000a900473ffffffffffffffffffffffffffffffffffffffff1673ffffffffffffffffffffffffffffffffffffffff16612de7909392919063ffffffff16565b610ea8838260000154612ea890919063ffffffff16565b81600001819055505b610ee364e8d4a51000610ed584600301548460000154612ad090919063ffffffff16565b612b5690919063ffffffff16565b816001018190555060003373ffffffffffffffffffffffffffffffffffffffff167f90890809c654f11d6e72a28fa60149770a0d11ec6c92319d6ceb2bb0a4ea1a15856040518082815260200191505060405180910390a3505050565b6000821415610fb7576040517f08c379a00000000000000000000000000000000000000000000000000000000081526004018080602001828103825260198152602001807f776974686472617720616c6920627920756e7374616b696e670000000000000081525060200191505060405180910390fd5b600060048381548110610fc657fe5b9060005260206000209060040201905060006005600085815260200190815260200160002060003373ffffffffffffffffffffffffffffffffffffffff1673ffffffffffffffffffffffffffffffffffffffff168152602001908152602001600020905082816000015410156110a4576040517f08c379a00000000000000000000000000000000000000000000000000000000081526004018080602001828103825260128152602001807f77697468647261773a206e6f7420676f6f64000000000000000000000000000081525060200191505060405180910390fd5b6110ad8461166b565b60006110f782600101546110e964e8d4a510006110db87600301548760000154612ad090919063ffffffff16565b612b5690919063ffffffff16565b612ba090919063ffffffff16565b9050600081111561110d5761110c3382612bea565b5b60008411156111855761112d848360000154612ba090919063ffffffff16565b826000018190555061118433858560000160009054906101000a900473ffffffffffffffffffffffffffffffffffffffff1673ffffffffffffffffffffffffffffffffffffffff16612c999092919063ffffffff16565b5b6111b764e8d4a510006111a985600301548560000154612ad090919063ffffffff16565b612b5690919063ffffffff16565b8260010181905550843373ffffffffffffffffffffffffffffffffffffffff167ff279e6a1f5e320cca91135676d9cb6e44ca8a08c0b88342bcdb1144f6511b568866040518082815260200191505060405180910390a35050505050565b600073ffffffffffffffffffffffffffffffffffffffff16600360009054906101000a900473ffffffffffffffffffffffffffffffffffffffff1673ffffffffffffffffffffffffffffffffffffffff1614156112da576040517f08c379a00000000000000000000000000000000000000000000000000000000081526004018080602001828103825260148152602001807f6d6967726174653a206e6f206d69677261746f7200000000000000000000000081525060200191505060405180910390fd5b6000600482815481106112e957fe5b9060005260206000209060040201905060008160000160009054906101000a900473ffffffffffffffffffffffffffffffffffffffff16905060008173ffffffffffffffffffffffffffffffffffffffff166370a08231306040518263ffffffff1660e01b8152600401808273ffffffffffffffffffffffffffffffffffffffff16815260200191505060206040518083038186803b15801561138b57600080fd5b505afa15801561139f573d6000803e3d6000fd5b505050506040513d60208110156113b557600080fd5b81019080805190602001909291905050509050611415600360009054906101000a900473ffffffffffffffffffffffffffffffffffffffff16828473ffffffffffffffffffffffffffffffffffffffff16612f309092919063ffffffff16565b6000600360009054906101000a900473ffffffffffffffffffffffffffffffffffffffff1673ffffffffffffffffffffffffffffffffffffffff1663ce5494bb846040518263ffffffff1660e01b8152600401808273ffffffffffffffffffffffffffffffffffffffff168152602001915050602060405180830381600087803b1580156114a257600080fd5b505af11580156114b6573d6000803e3d6000fd5b505050506040513d60208110156114cc57600080fd5b810190808051906020019092919050505090508073ffffffffffffffffffffffffffffffffffffffff166370a08231306040518263ffffffff1660e01b8152600401808273ffffffffffffffffffffffffffffffffffffffff16815260200191505060206040518083038186803b15801561154657600080fd5b505afa15801561155a573d6000803e3d6000fd5b505050506040513d602081101561157057600080fd5b810190808051906020019092919050505082146115f5576040517f08c379a000000000000000000000000000000000000000000000000000000000815260040180806020018281038252600c8152602001807f6d6967726174653a20626164000000000000000000000000000000000000000081525060200191505060405180910390fd5b808460000160006101000a81548173ffffffffffffffffffffffffffffffffffffffff021916908373ffffffffffffffffffffffffffffffffffffffff1602179055505050505050565b60075481565b600260009054906101000a900473ffffffffffffffffffffffffffffffffffffffff1681565b60006004828154811061167a57fe5b906000526020600020906004020190508060020154431161169b57506118db565b60008160000160009054906101000a900473ffffffffffffffffffffffffffffffffffffffff1673ffffffffffffffffffffffffffffffffffffffff166370a08231306040518263ffffffff1660e01b8152600401808273ffffffffffffffffffffffffffffffffffffffff16815260200191505060206040518083038186803b15801561172857600080fd5b505afa15801561173c573d6000803e3d6000fd5b505050506040513d602081101561175257600080fd5b81019080805190602001909291905050509050600081141561177e5743826002018190555050506118db565b60006117b76006546117a9856001015461179b87600201546121a3565b612ad090919063ffffffff16565b612b5690919063ffffffff16565b9050600160009054906101000a900473ffffffffffffffffffffffffffffffffffffffff1673ffffffffffffffffffffffffffffffffffffffff166340c10f19600260009054906101000a900473ffffffffffffffffffffffffffffffffffffffff16836040518363ffffffff1660e01b8152600401808373ffffffffffffffffffffffffffffffffffffffff16815260200182815260200192505050600060405180830381600087803b15801561186e57600080fd5b505af1158015611882573d6000803e3d6000fd5b505050506118c66118b3836118a564e8d4a5100085612ad090919063ffffffff16565b612b5690919063ffffffff16565b8460030154612ea890919063ffffffff16565b83600301819055504383600201819055505050505b50565b6000600482815481106118ed57fe5b9060005260206000209060040201905060006005600084815260200190815260200160002060003373ffffffffffffffffffffffffffffffffffffffff1673ffffffffffffffffffffffffffffffffffffffff16815260200190815260200160002090506119a43382600001548460000160009054906101000a900473ffffffffffffffffffffffffffffffffffffffff1673ffffffffffffffffffffffffffffffffffffffff16612c999092919063ffffffff16565b823373ffffffffffffffffffffffffffffffffffffffff167fbb757047c2b5f3974fe26b7c10f732e7bce710b0952a71082702781e62ae059583600001546040518082815260200191505060405180910390a36000816000018190555060008160010181905550505050565b6000600480549050905060005b81811015611a3957611a2e8161166b565b806001019050611a1d565b5050565b611a45612d3b565b73ffffffffffffffffffffffffffffffffffffffff1660008054906101000a900473ffffffffffffffffffffffffffffffffffffffff1673ffffffffffffffffffffffffffffffffffffffff1614611b05576040517f08c379a00000000000000000000000000000000000000000000000000000000081526004018080602001828103825260208152602001807f4f776e61626c653a2063616c6c6572206973206e6f7420746865206f776e657281525060200191505060405180910390fd5b8015611b1457611b13611a10565b5b600060048481548110611b2357fe5b90600052602060002090600402016001015490508260048581548110611b4557fe5b906000526020600020906004020160010181905550828114611b6a57611b69612d43565b5b50505050565b611b78612d3b565b73ffffffffffffffffffffffffffffffffffffffff1660008054906101000a900473ffffffffffffffffffffffffffffffffffffffff1673ffffffffffffffffffffffffffffffffffffffff1614611c38576040517f08c379a00000000000000000000000000000000000000000000000000000000081526004018080602001828103825260208152602001807f4f776e61626c653a2063616c6c6572206973206e6f7420746865206f776e657281525060200191505060405180910390fd5b600073ffffffffffffffffffffffffffffffffffffffff1660008054906101000a900473ffffffffffffffffffffffffffffffffffffffff1673ffffffffffffffffffffffffffffffffffffffff167f8be0079c531659141344cd1fd0a4f28419497f9722a3daafe3b4186f6b6457e060405160405180910390a360008060006101000a81548173ffffffffffffffffffffffffffffffffffffffff021916908373ffffffffffffffffffffffffffffffffffffffff160217905550565b6000600160009054906101000a900473ffffffffffffffffffffffffffffffffffffffff1673ffffffffffffffffffffffffffffffffffffffff1663bb9dd8f26040518163ffffffff1660e01b815260040160206040518083038186803b158015611d6057600080fd5b505afa158015611d74573d6000803e3d6000fd5b505050506040513d6020811015611d8a57600080fd5b8101908080519060200190929190505050821115611e10576040517f08c379a00000000000000000000000000000000000000000000000000000000081526004018080602001828103825260198152602001807f496e63656e746976653a20706572696f6420696e76616c69640000000000000081525060200191505060405180910390fd5b611ed9600754611ecb84600160009054906101000a900473ffffffffffffffffffffffffffffffffffffffff1673ffffffffffffffffffffffffffffffffffffffff1663502ea8836040518163ffffffff1660e01b815260040160206040518083038186803b158015611e8257600080fd5b505afa158015611e96573d6000803e3d6000fd5b505050506040513d6020811015611eac57600080fd5b8101908080519060200190929190505050612ad090919063ffffffff16565b612ea890919063ffffffff16565b9050919050565b6000600160009054906101000a900473ffffffffffffffffffffffffffffffffffffffff1673ffffffffffffffffffffffffffffffffffffffff1663bb9dd8f26040518163ffffffff1660e01b815260040160206040518083038186803b158015611f4a57600080fd5b505afa158015611f5e573d6000803e3d6000fd5b505050506040513d6020811015611f7457600080fd5b8101908080519060200190929190505050821115611ffa576040517f08c379a00000000000000000000000000000000000000000000000000000000081526004018080602001828103825260198152602001807f496e63656e746976653a20706572696f6420696e76616c69640000000000000081525060200191505060405180910390fd5b6121766120086064846130f5565b612168600160009054906101000a900473ffffffffffffffffffffffffffffffffffffffff1673ffffffffffffffffffffffffffffffffffffffff1663eb6314d66040518163ffffffff1660e01b815260040160206040518083038186803b15801561207357600080fd5b505afa158015612087573d6000803e3d6000fd5b505050506040513d602081101561209d57600080fd5b810190808051906020019092919050505061215a600160009054906101000a900473ffffffffffffffffffffffffffffffffffffffff1673ffffffffffffffffffffffffffffffffffffffff1663880afb666040518163ffffffff1660e01b815260040160206040518083038186803b15801561211957600080fd5b505afa15801561212d573d6000803e3d6000fd5b505050506040513d602081101561214357600080fd5b8101908080519060200190929190505050876130f5565b612ad090919063ffffffff16565b612b5690919063ffffffff16565b9050919050565b600360009054906101000a900473ffffffffffffffffffffffffffffffffffffffff1681565b600080439050600754811015612221576040517f08c379a000000000000000000000000000000000000000000000000000000000815260040180806020018281038252601f8152602001807f496e63656e746976653a2063757272656e74426c6f636b20696e76616c69640081525060200191505060405180910390fd5b600061222c84612621565b9050600061223983612621565b905060008590506000808490505b8381116122c457600084821061225d578661226a565b61226960018301611cf6565b5b905060006122818583612ba090919063ffffffff16565b90506122b06122a161229285611ee0565b83612ad090919063ffffffff16565b85612ea890919063ffffffff16565b935081945050508080600101915050612247565b5061238d606461237f600160009054906101000a900473ffffffffffffffffffffffffffffffffffffffff1673ffffffffffffffffffffffffffffffffffffffff16632e9e9b6d6040518163ffffffff1660e01b815260040160206040518083038186803b15801561233557600080fd5b505afa158015612349573d6000803e3d6000fd5b505050506040513d602081101561235f57600080fd5b810190808051906020019092919050505084612ad090919063ffffffff16565b612b5690919063ffffffff16565b90508095505050505050919050565b60008060009054906101000a900473ffffffffffffffffffffffffffffffffffffffff16905090565b600080600484815481106123d557fe5b9060005260206000209060040201905060006005600086815260200190815260200160002060008573ffffffffffffffffffffffffffffffffffffffff1673ffffffffffffffffffffffffffffffffffffffff168152602001908152602001600020905060008260030154905060008360000160009054906101000a900473ffffffffffffffffffffffffffffffffffffffff1673ffffffffffffffffffffffffffffffffffffffff166370a08231306040518263ffffffff1660e01b8152600401808273ffffffffffffffffffffffffffffffffffffffff16815260200191505060206040518083038186803b1580156124cf57600080fd5b505afa1580156124e3573d6000803e3d6000fd5b505050506040513d60208110156124f957600080fd5b81019080805190602001909291905050509050836002015443118015612520575060008114155b156125a057600061255e600654612550876001015461254289600201546121a3565b612ad090919063ffffffff16565b612b5690919063ffffffff16565b905061259c61258d8361257f64e8d4a5100085612ad090919063ffffffff16565b612b5690919063ffffffff16565b84612ea890919063ffffffff16565b9250505b6125e483600101546125d664e8d4a510006125c8868860000154612ad090919063ffffffff16565b612b5690919063ffffffff16565b612ba090919063ffffffff16565b94505050505092915050565b6005602052816000526040600020602052806000526040600020600091509150508060000154908060010154905082565b600060075482101561269b576040517f08c379a000000000000000000000000000000000000000000000000000000000815260040180806020018281038252601e8152602001807f496e63656e746976653a20626c6f636b4e756d62657220696e76616c6964000081525060200191505060405180910390fd5b612764600160009054906101000a900473ffffffffffffffffffffffffffffffffffffffff1673ffffffffffffffffffffffffffffffffffffffff1663502ea8836040518163ffffffff1660e01b815260040160206040518083038186803b15801561270657600080fd5b505afa15801561271a573d6000803e3d6000fd5b505050506040513d602081101561273057600080fd5b810190808051906020019092919050505061275660075485612ba090919063ffffffff16565b612b5690919063ffffffff16565b9050919050565b600160009054906101000a900473ffffffffffffffffffffffffffffffffffffffff1681565b6000821415612808576040517f08c379a00000000000000000000000000000000000000000000000000000000081526004018080602001828103825260168152602001807f6465706f73697420616c69206279207374616b696e670000000000000000000081525060200191505060405180910390fd5b60006004838154811061281757fe5b9060005260206000209060040201905060006005600085815260200190815260200160002060003373ffffffffffffffffffffffffffffffffffffffff1673ffffffffffffffffffffffffffffffffffffffff16815260200190815260200160002090506128848461166b565b6000816000015411156128f35760006128db82600101546128cd64e8d4a510006128bf87600301548760000154612ad090919063ffffffff16565b612b5690919063ffffffff16565b612ba090919063ffffffff16565b905060008111156128f1576128f03382612bea565b5b505b600083111561296d5761294d3330858560000160009054906101000a900473ffffffffffffffffffffffffffffffffffffffff1673ffffffffffffffffffffffffffffffffffffffff16612de7909392919063ffffffff16565b612964838260000154612ea890919063ffffffff16565b81600001819055505b61299f64e8d4a5100061299184600301548460000154612ad090919063ffffffff16565b612b5690919063ffffffff16565b8160010181905550833373ffffffffffffffffffffffffffffffffffffffff167f90890809c654f11d6e72a28fa60149770a0d11ec6c92319d6ceb2bb0a4ea1a15856040518082815260200191505060405180910390a350505050565b612a04612d3b565b73ffffffffffffffffffffffffffffffffffffffff1660008054906101000a900473ffffffffffffffffffffffffffffffffffffffff1673ffffffffffffffffffffffffffffffffffffffff1614612ac4576040517f08c379a00000000000000000000000000000000000000000000000000000000081526004018080602001828103825260208152602001807f4f776e61626c653a2063616c6c6572206973206e6f7420746865206f776e657281525060200191505060405180910390fd5b612acd8161317a565b50565b600080831415612ae35760009050612b50565b6000828402905082848281612af457fe5b0414612b4b576040517f08c379a00000000000000000000000000000000000000000000000000000000081526004018080602001828103825260218152602001806137ec6021913960400191505060405180910390fd5b809150505b92915050565b6000612b9883836040518060400160405280601a81526020017f536166654d6174683a206469766973696f6e206279207a65726f0000000000008152506132bd565b905092915050565b6000612be283836040518060400160405280601e81526020017f536166654d6174683a207375627472616374696f6e206f766572666c6f770000815250613383565b905092915050565b600260009054906101000a900473ffffffffffffffffffffffffffffffffffffffff1673ffffffffffffffffffffffffffffffffffffffff1663423f6cef83836040518363ffffffff1660e01b8152600401808373ffffffffffffffffffffffffffffffffffffffff16815260200182815260200192505050600060405180830381600087803b158015612c7d57600080fd5b505af1158015612c91573d6000803e3d6000fd5b505050505050565b612d368363a9059cbb60e01b8484604051602401808373ffffffffffffffffffffffffffffffffffffffff16815260200182815260200192505050604051602081830303815290604052907bffffffffffffffffffffffffffffffffffffffffffffffffffffffff19166020820180517bffffffffffffffffffffffffffffffffffffffffffffffffffffffff8381831617835250505050613443565b505050565b600033905090565b60006004805490509050600080600190505b82811015612d9b57612d8e60048281548110612d6d57fe5b90600052602060002090600402016001015483612ea890919063ffffffff16565b9150806001019050612d55565b5060008114612de357806004600081548110612db357fe5b906000526020600020906004020160010181905550612ddc600282612ad090919063ffffffff16565b6006819055505b5050565b612ea2846323b872dd60e01b858585604051602401808473ffffffffffffffffffffffffffffffffffffffff1681526020018373ffffffffffffffffffffffffffffffffffffffff1681526020018281526020019350505050604051602081830303815290604052907bffffffffffffffffffffffffffffffffffffffffffffffffffffffff19166020820180517bffffffffffffffffffffffffffffffffffffffffffffffffffffffff8381831617835250505050613443565b50505050565b600080828401905083811015612f26576040517f08c379a000000000000000000000000000000000000000000000000000000000815260040180806020018281038252601b8152602001807f536166654d6174683a206164646974696f6e206f766572666c6f77000000000081525060200191505060405180910390fd5b8091505092915050565b6000811480612ffe575060008373ffffffffffffffffffffffffffffffffffffffff1663dd62ed3e30856040518363ffffffff1660e01b8152600401808373ffffffffffffffffffffffffffffffffffffffff1681526020018273ffffffffffffffffffffffffffffffffffffffff1681526020019250505060206040518083038186803b158015612fc157600080fd5b505afa158015612fd5573d6000803e3d6000fd5b505050506040513d6020811015612feb57600080fd5b8101908080519060200190929190505050145b613053576040517f08c379a000000000000000000000000000000000000000000000000000000000815260040180806020018281038252603681526020018061380d6036913960400191505060405180910390fd5b6130f08363095ea7b360e01b8484604051602401808373ffffffffffffffffffffffffffffffffffffffff16815260200182815260200192505050604051602081830303815290604052907bffffffffffffffffffffffffffffffffffffffffffffffffffffffff19166020820180517bffffffffffffffffffffffffffffffffffffffffffffffffffffffff8381831617835250505050613443565b505050565b6000808214156131085760019050613174565b600182141561311957829050613174565b60008314801561312a575060008214155b156131385760009050613174565b60008390506000600190505b8381101561316e5761315f8583612ad090919063ffffffff16565b91508080600101915050613144565b50809150505b92915050565b600073ffffffffffffffffffffffffffffffffffffffff168173ffffffffffffffffffffffffffffffffffffffff161415613200576040517f08c379a00000000000000000000000000000000000000000000000000000000081526004018080602001828103825260268152602001806137c66026913960400191505060405180910390fd5b8073ffffffffffffffffffffffffffffffffffffffff1660008054906101000a900473ffffffffffffffffffffffffffffffffffffffff1673ffffffffffffffffffffffffffffffffffffffff167f8be0079c531659141344cd1fd0a4f28419497f9722a3daafe3b4186f6b6457e060405160405180910390a3806000806101000a81548173ffffffffffffffffffffffffffffffffffffffff021916908373ffffffffffffffffffffffffffffffffffffffff16021790555050565b60008083118290613369576040517f08c379a00000000000000000000000000000000000000000000000000000000081526004018080602001828103825283818151815260200191508051906020019080838360005b8381101561332e578082015181840152602081019050613313565b50505050905090810190601f16801561335b5780820380516001836020036101000a031916815260200191505b509250505060405180910390fd5b50600083858161337557fe5b049050809150509392505050565b6000838311158290613430576040517f08c379a00000000000000000000000000000000000000000000000000000000081526004018080602001828103825283818151815260200191508051906020019080838360005b838110156133f55780820151818401526020810190506133da565b50505050905090810190601f1680156134225780820380516001836020036101000a031916815260200191505b509250505060405180910390fd5b5060008385039050809150509392505050565b60606134a5826040518060400160405280602081526020017f5361666542455032303a206c6f772d6c6576656c2063616c6c206661696c65648152508573ffffffffffffffffffffffffffffffffffffffff166135329092919063ffffffff16565b905060008151111561352d578080602001905160208110156134c657600080fd5b810190808051906020019092919050505061352c576040517f08c379a000000000000000000000000000000000000000000000000000000000815260040180806020018281038252602a81526020018061379c602a913960400191505060405180910390fd5b5b505050565b6060613541848460008561354a565b90509392505050565b606061355585613750565b6135c7576040517f08c379a000000000000000000000000000000000000000000000000000000000815260040180806020018281038252601d8152602001807f416464726573733a2063616c6c20746f206e6f6e2d636f6e747261637400000081525060200191505060405180910390fd5b600060608673ffffffffffffffffffffffffffffffffffffffff1685876040518082805190602001908083835b6020831061361757805182526020820191506020810190506020830392506135f4565b6001836020036101000a03801982511681845116808217855250505050505090500191505060006040518083038185875af1925050503d8060008114613679576040519150601f19603f3d011682016040523d82523d6000602084013e61367e565b606091505b50915091508115613693578092505050613748565b6000815111156136a65780518082602001fd5b836040517f08c379a00000000000000000000000000000000000000000000000000000000081526004018080602001828103825283818151815260200191508051906020019080838360005b8381101561370d5780820151818401526020810190506136f2565b50505050905090810190601f16801561373a5780820380516001836020036101000a031916815260200191505b509250505060405180910390fd5b949350505050565b60008060007fc5d2460186f7233c927e7db2dcc703c0e500b653ca82273b7bfad8045d85a47060001b9050833f915080821415801561379257506000801b8214155b9250505091905056fe5361666542455032303a204245503230206f7065726174696f6e20646964206e6f7420737563636565644f776e61626c653a206e6577206f776e657220697320746865207a65726f2061646472657373536166654d6174683a206d756c7469706c69636174696f6e206f766572666c6f775361666542455032303a20617070726f76652066726f6d206e6f6e2d7a65726f20746f206e6f6e2d7a65726f20616c6c6f77616e6365a2646970667358221220589440a216588a87954c45e75e80a0b528a7f3e261760262d4db6749ad7dccd164736f6c634300060c0033",
  "immutableReferences": {},
  "source": "pragma solidity 0.6.12;\n\nimport '@pancakeswap/pancake-swap-lib/contracts/math/SafeMath.sol';\nimport '@pancakeswap/pancake-swap-lib/contracts/token/BEP20/IBEP20.sol';\nimport '@pancakeswap/pancake-swap-lib/contracts/token/BEP20/SafeBEP20.sol';\nimport '@pancakeswap/pancake-swap-lib/contracts/access/Ownable.sol';\n\nimport \"./ALIToken.sol\";\nimport \"./Staking.sol\";\n\n// import \"@nomiclabs/buidler/console.sol\";\n\ninterface IMigratorChef {\n    function migrate(IBEP20 token) external returns (IBEP20);\n}\n\n// MasterChef is the master of ali. He can make ali and he is a fair guy.\n//\n// Note that it's ownable and the owner wields tremendous power. The ownership\n// will be transferred to a governance smart contract once ali is sufficiently\n// distributed and the community can show to govern itself.\n//\n// Have fun reading it. Hopefully it's bug-free. God bless.\ncontract MasterChef is Ownable {\n    using SafeMath for uint256;\n    using SafeBEP20 for IBEP20;\n\n    // Info of each user.\n    struct UserInfo {\n        uint256 amount;     // How many LP tokens the user has provided.\n        uint256 rewardDebt; // Reward debt. See explanation below.\n        //\n        // We do some fancy math here. Basically, any point in time, the amount of alitas\n        // entitled to a user but is pending to be distributed is:\n        //\n        //   pending reward = (user.amount * pool.accALIPerShare) - user.rewardDebt\n        //\n        // Whenever a user deposits or withdraws LP tokens to a pool. Here's what happens:\n        //   1. The pool's `accALIPerShare` (and `lastRewardBlock`) gets updated.\n        //   2. User receives the pending reward sent to his/her address.\n        //   3. User's `amount` gets updated.\n        //   4. User's `rewardDebt` gets updated.\n    }\n\n    // Info of each pool.\n    struct PoolInfo {\n        IBEP20 lpToken;           // Address of LP token contract.\n        uint256 allocPoint;       // How many allocation points assigned to this pool. alitas to distribute per block.\n        uint256 lastRewardBlock;  // Last block number that alitas distribution occurs.\n        uint256 accALIPerShare; // Accumulated alitas per share, times 1e12. See below.\n    }\n\n    // The ali TOKEN!\n    AliToken public ali;\n    Staking public staking;\n    // The migrator contract. It has a lot of power. Can only be set through governance (owner).\n    IMigratorChef public migrator;\n\n    // Info of each pool.\n    PoolInfo[] public poolInfo;\n    // Info of each user that stakes LP tokens.\n    mapping (uint256 => mapping (address => UserInfo)) public userInfo;\n    // Total allocation points. Must be the sum of all allocation points in all pools.\n    uint256 public totalAllocPoint = 0;\n    // The block number when ali mining starts.\n    uint256 public startBlock;\n\n    event Deposit(address indexed user, uint256 indexed pid, uint256 amount);\n    event Withdraw(address indexed user, uint256 indexed pid, uint256 amount);\n    event EmergencyWithdraw(address indexed user, uint256 indexed pid, uint256 amount);\n\n    constructor(\n        AliToken _ali,\n        Staking _staking,\n        // uint256 _alitaPerBlock,\n        uint256 _startBlock\n    ) public {\n        ali = _ali;\n        staking = _staking;\n        // alitaPerBlock = _alitaPerBlock;\n        startBlock = _startBlock;\n\n        // staking pool\n        poolInfo.push(PoolInfo({\n            lpToken: IBEP20(_ali),\n            allocPoint: 1000,\n            lastRewardBlock: startBlock,\n            accALIPerShare: 0\n        }));\n\n        totalAllocPoint = 1000;\n\n    }\n\n    function poolLength() external view returns (uint256) {\n        return poolInfo.length;\n    }\n\n    // Add a new lp to the pool. Can only be called by the owner.\n    // ali DO NOT add the same LP token more than once. Rewards will be messed up if you do.\n    function add(uint256 _allocPoint, IBEP20 _lpToken, bool _withUpdate) public onlyOwner {\n        if (_withUpdate) {\n            massUpdatePools();\n        }\n        uint256 lastRewardBlock = block.number > startBlock ? block.number : startBlock;\n        // totalAllocPoint = totalAllocPoint.add(_allocPoint);\n        poolInfo.push(PoolInfo({\n            lpToken: _lpToken,\n            allocPoint: _allocPoint,\n            lastRewardBlock: lastRewardBlock,\n            accALIPerShare: 0\n        }));\n        updateStakingPool();\n    }\n\n    // Update the given pool's ali allocation point. Can only be called by the owner.\n    function set(uint256 _pid, uint256 _allocPoint, bool _withUpdate) public onlyOwner {\n        if (_withUpdate) {\n            massUpdatePools();\n        }\n        uint256 prevAllocPoint = poolInfo[_pid].allocPoint;\n        poolInfo[_pid].allocPoint = _allocPoint;\n        if (prevAllocPoint != _allocPoint) {\n            // totalAllocPoint = totalAllocPoint.sub(prevAllocPoint).add(_allocPoint);\n            updateStakingPool();\n        }\n    }\n\n    function updateStakingPool() internal {\n        uint256 length = poolInfo.length;\n        uint256 points = 0;\n        for (uint256 pid = 1; pid < length; ++pid) {\n            points = points.add(poolInfo[pid].allocPoint);\n        }\n        if (points != 0) {\n            poolInfo[0].allocPoint = points;\n            totalAllocPoint = points.mul(2);\n        }\n    }\n\n    // Set the migrator contract. Can only be called by the owner.\n    function setMigrator(IMigratorChef _migrator) public onlyOwner {\n        migrator = _migrator;\n    }\n\n    // Migrate lp token to another lp contract. Can be called by anyone. We trust that migrator contract is good.\n    function migrate(uint256 _pid) public {\n        require(address(migrator) != address(0), \"migrate: no migrator\");\n        PoolInfo storage pool = poolInfo[_pid];\n        IBEP20 lpToken = pool.lpToken;\n        uint256 bal = lpToken.balanceOf(address(this));\n        lpToken.safeApprove(address(migrator), bal);\n        IBEP20 newLpToken = migrator.migrate(lpToken);\n        require(bal == newLpToken.balanceOf(address(this)), \"migrate: bad\");\n        pool.lpToken = newLpToken;\n    }\n\n    // View function to see pending alitas on frontend.\n    function pendingALI(uint256 _pid, address _user) external view returns (uint256) {\n        PoolInfo storage pool = poolInfo[_pid];\n        UserInfo storage user = userInfo[_pid][_user];\n        uint256 accALIPerShare = pool.accALIPerShare;\n        uint256 lpSupply = pool.lpToken.balanceOf(address(this));\n        if (block.number > pool.lastRewardBlock && lpSupply != 0) {\n            uint256 alitaReward = getClaimableReward(pool.lastRewardBlock).mul(pool.allocPoint).div(totalAllocPoint);\n            accALIPerShare = accALIPerShare.add(alitaReward.mul(1e12).div(lpSupply));\n        }\n        return user.amount.mul(accALIPerShare).div(1e12).sub(user.rewardDebt);\n    }\n\n    // Update reward variables for all pools. Be careful of gas spending!\n    function massUpdatePools() public {\n        uint256 length = poolInfo.length;\n        for (uint256 pid = 0; pid < length; ++pid) {\n            updatePool(pid);\n        }\n    }\n\n\n    // Update reward variables of the given pool to be up-to-date.\n    function updatePool(uint256 _pid) public {\n        PoolInfo storage pool = poolInfo[_pid];\n        if (block.number <= pool.lastRewardBlock) {\n            return;\n        }\n        uint256 lpSupply = pool.lpToken.balanceOf(address(this));\n        if (lpSupply == 0) {\n            pool.lastRewardBlock = block.number;\n            return;\n        }\n        uint256 alitaReward = getClaimableReward(pool.lastRewardBlock).mul(pool.allocPoint).div(totalAllocPoint);\n        ali.mint(address(staking), alitaReward);\n        pool.accALIPerShare = pool.accALIPerShare.add(alitaReward.mul(1e12).div(lpSupply));\n        pool.lastRewardBlock = block.number;\n    }\n\n    // Deposit LP tokens to MasterChef for ali allocation.\n    function deposit(uint256 _pid, uint256 _amount) public {\n\n        require (_pid != 0, 'deposit ali by staking');\n\n        PoolInfo storage pool = poolInfo[_pid];\n        UserInfo storage user = userInfo[_pid][msg.sender];\n        updatePool(_pid);\n        if (user.amount > 0) {\n            uint256 pending = user.amount.mul(pool.accALIPerShare).div(1e12).sub(user.rewardDebt);\n            if(pending > 0) {\n                safeTransfer(msg.sender, pending);\n            }\n        }\n        if (_amount > 0) {\n            pool.lpToken.safeTransferFrom(address(msg.sender), address(this), _amount);\n            user.amount = user.amount.add(_amount);\n        }\n        user.rewardDebt = user.amount.mul(pool.accALIPerShare).div(1e12);\n        emit Deposit(msg.sender, _pid, _amount);\n    }\n\n    // Withdraw LP tokens from MasterChef.\n    function withdraw(uint256 _pid, uint256 _amount) public {\n\n        require (_pid != 0, 'withdraw ali by unstaking');\n        PoolInfo storage pool = poolInfo[_pid];\n        UserInfo storage user = userInfo[_pid][msg.sender];\n        require(user.amount >= _amount, \"withdraw: not good\");\n\n        updatePool(_pid);\n        uint256 pending = user.amount.mul(pool.accALIPerShare).div(1e12).sub(user.rewardDebt);\n        if(pending > 0) {\n            safeTransfer(msg.sender, pending);\n        }\n        if(_amount > 0) {\n            user.amount = user.amount.sub(_amount);\n            pool.lpToken.safeTransfer(address(msg.sender), _amount);\n        }\n        user.rewardDebt = user.amount.mul(pool.accALIPerShare).div(1e12);\n        emit Withdraw(msg.sender, _pid, _amount);\n    }\n\n    // Stake ali tokens to MasterChef\n    function enterStaking(uint256 _amount) public {\n        PoolInfo storage pool = poolInfo[0];\n        UserInfo storage user = userInfo[0][msg.sender];\n        updatePool(0);\n        if (user.amount > 0) {\n            uint256 pending = user.amount.mul(pool.accALIPerShare).div(1e12).sub(user.rewardDebt);\n            if(pending > 0) {\n                safeTransfer(msg.sender, pending);\n            }\n        }\n        if(_amount > 0) {\n            pool.lpToken.safeTransferFrom(address(msg.sender), address(this), _amount);\n            user.amount = user.amount.add(_amount);\n        }\n        user.rewardDebt = user.amount.mul(pool.accALIPerShare).div(1e12);\n\n        // staking.mint(msg.sender, _amount);\n        emit Deposit(msg.sender, 0, _amount);\n    }\n\n    // Withdraw ali tokens from STAKING.\n    function leaveStaking(uint256 _amount) public {\n        PoolInfo storage pool = poolInfo[0];\n        UserInfo storage user = userInfo[0][msg.sender];\n        require(user.amount >= _amount, \"withdraw: not good\");\n        updatePool(0);\n        uint256 pending = user.amount.mul(pool.accALIPerShare).div(1e12).sub(user.rewardDebt);\n        if(pending > 0) {\n            safeTransfer(msg.sender, pending);\n        }\n        if(_amount > 0) {\n            user.amount = user.amount.sub(_amount);\n            pool.lpToken.safeTransfer(address(msg.sender), _amount);\n        }\n        user.rewardDebt = user.amount.mul(pool.accALIPerShare).div(1e12);\n\n        // staking.burn(msg.sender, _amount);\n        emit Withdraw(msg.sender, 0, _amount);\n    }\n\n    // Withdraw without caring about rewards. EMERGENCY ONLY.\n    function emergencyWithdraw(uint256 _pid) public {\n        PoolInfo storage pool = poolInfo[_pid];\n        UserInfo storage user = userInfo[_pid][msg.sender];\n        pool.lpToken.safeTransfer(address(msg.sender), user.amount);\n        emit EmergencyWithdraw(msg.sender, _pid, user.amount);\n        user.amount = 0;\n        user.rewardDebt = 0;\n    }\n\n    // Safe ali transfer function, just in case if rounding error causes pool to not have enough alitas.\n    function safeTransfer(address _to, uint256 _amount) internal {\n        staking.safeTransfer(_to, _amount);\n    }\n\n    /**\n     * @notice Returns the result of (base ** exponent) with SafeMath\n     * @param base The base number. Example: 2\n     * @param exponent The exponent used to raise the base. Example: 3\n     * @return A number representing the given base taken to the power of the given exponent. Example: 2 ** 3 = 8\n     */\n    function pow(uint base, uint exponent) internal pure returns (uint) {\n        if (exponent == 0) {\n            return 1;\n        } else if (exponent == 1) {\n            return base;\n        } else if (base == 0 && exponent != 0) {\n            return 0;\n        } else {\n            uint result = base;\n            for (uint i = 1; i < exponent; i++) {\n                result = result.mul(base);\n            }\n            return result;\n        }\n    }\n\n    /**\n     * @notice Caculate the reward per block at the period: (keepPercent / 100) ** period * initialRewardPerBlock\n     * @param periodIndex The period index. The period index must be between [0, maxiumPeriodIndex]\n     * @return A number representing the reward token per block at specific period. Result is scaled by 1e18.\n     */\n    function getRewardPerBlock(uint periodIndex) public view returns (uint) {\n        require(periodIndex <= ali.getMaxiumPeriodIndex(), 'Incentive: period invalid');\n        return pow(ali.getKeepPercent(), periodIndex).mul(ali.getInitialRewardPerBlock()).div(pow(100, periodIndex));\n    }\n\n    /**\n     * @notice Calculate the block number corresponding to each milestone at the beginning of each period.\n     * @param periodIndex The period index. The period index must be between [0, maxiumPeriodIndex]\n     * @return A number representing the block number of the milestone at the beginning of the period.\n     */\n    function getBlockNumberOfMilestone(uint periodIndex) public view returns (uint) {\n        require(periodIndex <= ali.getMaxiumPeriodIndex(), 'Incentive: period invalid');\n        return ali.getBlockPerPeriod().mul(periodIndex).add(startBlock);\n    }\n\n    /**\n     * @notice Determine the period corresponding to any block number.\n     * @param blockNumber The block number. The block number must be >= startBlock\n     * @return A number representing period index of the input block number.\n     */\n    function getPeriodIndexByBlockNumber(uint blockNumber) public view returns (uint) {\n        require(blockNumber >= startBlock, 'Incentive: blockNumber invalid');\n        return blockNumber.sub(startBlock).div(ali.getBlockPerPeriod());\n    }\n\n    /**\n     * @notice Calculate the reward that can be claimed from the last received time to the present time.\n     * @return A number representing the reclamable ALI tokens. Result is scaled by 1e18.\n     */\n    function getClaimableReward(uint lastRewardBlock) public view returns (uint) {\n        uint currentBlock = block.number;\n        require(currentBlock >= startBlock, 'Incentive: currentBlock invalid');\n\n        uint lastClaimPeriod = getPeriodIndexByBlockNumber(lastRewardBlock); \n        uint currentPeriod = getPeriodIndexByBlockNumber(currentBlock);\n        \n        uint startCalculationBlock = lastRewardBlock; \n        uint sum = 0; \n        \n        for(uint i = lastClaimPeriod ; i  <= currentPeriod ; i++) { \n            uint nextBlock = i < currentPeriod ? getBlockNumberOfMilestone(i+1) : currentBlock;\n            uint delta = nextBlock.sub(startCalculationBlock);\n            sum = sum.add(delta.mul(getRewardPerBlock(i)));\n            startCalculationBlock = nextBlock;\n        }\n        sum = sum.mul(ali.getMasterChefWeight()).div(100);\n        return sum;\n    }\n}\n",
  "sourcePath": "/home/luandt/workplace/vndai-defi/farm/contracts/MasterChef.sol",
  "compiler": {
    "name": "solc",
    "version": "0.6.12+commit.27d51765.Emscripten.clang"
  },
  "schemaVersion": "3.4.1",
  "updatedAt": "2021-07-01T07:43:57.460Z",
  "devdoc": {
    "kind": "dev",
    "methods": {
      "getBlockNumberOfMilestone(uint256)": {
        "params": {
          "periodIndex": "The period index. The period index must be between [0, maxiumPeriodIndex]"
        },
        "returns": {
          "_0": "A number representing the block number of the milestone at the beginning of the period."
        }
      },
      "getClaimableReward(uint256)": {
        "returns": {
          "_0": "A number representing the reclamable ALI tokens. Result is scaled by 1e18."
        }
      },
      "getPeriodIndexByBlockNumber(uint256)": {
        "params": {
          "blockNumber": "The block number. The block number must be >= startBlock"
        },
        "returns": {
          "_0": "A number representing period index of the input block number."
        }
      },
      "getRewardPerBlock(uint256)": {
        "params": {
          "periodIndex": "The period index. The period index must be between [0, maxiumPeriodIndex]"
        },
        "returns": {
          "_0": "A number representing the reward token per block at specific period. Result is scaled by 1e18."
        }
      },
      "owner()": {
        "details": "Returns the address of the current owner."
      },
      "renounceOwnership()": {
        "details": "Leaves the contract without owner. It will not be possible to call `onlyOwner` functions anymore. Can only be called by the current owner. NOTE: Renouncing ownership will leave the contract without an owner, thereby removing any functionality that is only available to the owner."
      },
      "transferOwnership(address)": {
        "details": "Transfers ownership of the contract to a new account (`newOwner`). Can only be called by the current owner."
      }
    },
    "version": 1
  },
  "userdoc": {
    "kind": "user",
    "methods": {
      "getBlockNumberOfMilestone(uint256)": {
        "notice": "Calculate the block number corresponding to each milestone at the beginning of each period."
      },
      "getClaimableReward(uint256)": {
        "notice": "Calculate the reward that can be claimed from the last received time to the present time."
      },
      "getPeriodIndexByBlockNumber(uint256)": {
        "notice": "Determine the period corresponding to any block number."
      },
      "getRewardPerBlock(uint256)": {
        "notice": "Caculate the reward per block at the period: (keepPercent / 100) ** period * initialRewardPerBlock"
      }
    },
    "version": 1
  }
}